:020000040800F2
:10000000C8580020DD010008E5010008E7010008EC
:10001000E9010008EB010008ED0100080000000004
:100020000000000000000000000000004501000882
:10003000F10100080000000089010008A106000885
:10004000F7010008F7010008F7010008F7010008B0
:10005000F7010008F7010008F7010008F7010008A0
:10006000F7010008F7010008F7010008F701000890
:10007000F7010008F7010008F7010008F701000880
:10008000F7010008F7010008F7010008F701000870
:10009000F7010008F7010008F7010008F701000860
:1000A000F7010008F7010008F7010008F701000850
:1000B00011070008F7010008A1070008F701000870
:1000C000F7010008F7010008F7010008F701000830
:1000D000F7010008610A0008F7010008F7010008AD
:1000E000F7010008F7010008F7010008F701000810
:1000F000F7010008F7010008F7010008F701000800
:10010000F7010008F701000839080008F7010008A6
:10011000F7010008F7010008D1080008F7010008FE
:10012000F7010008F7010008F7010008F7010008CF
:10013000DFF80CD000F09EF8004800477511000869
:10014000C8580020224B19680868B0E8F00F80F307
:100150000988BFF36F8F4FF0000080F311884EF0D5
:100160000D0E70470000000006480068006880F32C
:10017000088862B661B6BFF34F8FBFF36F8F00DFA1
:1001800000BF00BF08ED00E0EFF30980BFF36F8F01
:100190000F4B1A6820E9F00F106008B54FF05000BF
:1001A00080F31188BFF34F8FBFF36F8F02F030FAE7
:1001B0004FF0000080F31188BDE808401968086816
:1001C000B0E8F00F80F30988BFF36F8F704700BF6E
:1001D00040000020EFF3058070470000064880478C
:1001E00006480047FEE7FEE7FEE7FEE7FEE7FEE71C
:1001F000FEE7FEE7FEE7FEE7B10600083101000872
:1002000040EA01039B0703D009E008C9121F08C098
:10021000042AFAD203E011F8013B00F8013B521E18
:10022000F9D27047D2B201E000F8012B491EFBD28F
:1002300070470022F6E710B513460A4604461946F1
:10024000FFF7F0FF204610BD30B50B4601460020F9
:100250002022012409E021FA02F59D4205D303FA88
:1002600002F5491B04FA02F52844151EA2F1010209
:10027000F1DC30BD064C074D06E0E06840F00103BC
:1002800094E8070098471034AC42F6D3FFF754FFC8
:1002900094330008B43300082DE9F04102460025EC
:1002A0000026002000230024002791F803C00CF052
:1002B0000F0591F803C00CF0100CBCF1000F03D037
:1002C00091F802C04CEA050591F800C0BCF1000F9E
:1002D00031D0146800202BE04FF0010C0CFA00F331
:1002E000B1F800C00CEA03069E4220D183004FF013
:1002F0000F0C0CFA03F7BC4305FA03FC4CEA0404A8
:1003000091F803C0BCF1280F06D14FF0010C0CFA94
:1003100000FCC2F814C00AE091F803C0BCF1480F19
:1003200005D14FF0010C0CFA00FCC2F810C0401CC3
:100330000828D1D31460B1F800C0BCF1FF0F34DD40
:10034000546800202EE000F1080C4FF0010808FA74
:100350000CF3B1F800C00CEA03069E4221D18300E1
:100360004FF00F0C0CFA03F7BC4305FA03FC4CEA00
:10037000040491F803C0BCF1280F05D100F1080C6A
:1003800008FA0CF8C2F8148091F803C0BCF1480FC9
:1003900007D100F1080C4FF0010808FA0CF8C2F878
:1003A0001080401C0828CED35460BDE8F081416124
:1003B000704701617047000070B5002100230F22D3
:1003C000C47804B3154C246804F4E064C4F5E06414
:1003D000210AC1F10403CA40447804FA03F1847885
:1003E0001440214309010E4C0678A155047804F00D
:1003F0001F050124AC4005786D11AD0005F1E02525
:10040000C5F8004109E0047804F01F050124AC4060
:10041000044D0678761145F8264070BD0CED00E0DD
:1004200000E400E080E100E002490143024A11607B
:10043000704700000000FA050CED00E029B1064A03
:10044000D2690243044BDA6104E0034AD269824371
:10045000014BDA61704700000010024029B1064AE2
:1004600012690243044B1A6104E0034A1269824391
:10047000014B1A61704700000010024029B1064A82
:1004800092690243044B9A6104E0034A92698243F1
:10049000014B9A61704700000010024029B1064AE2
:1004A000D2680243044BDA6004E0034AD268824314
:1004B000014BDA60704700000010024030B50021A7
:1004C0000022002400232D4D6D6805F00C0121B1A0
:1004D000042905D0082923D105E0294D056022E033
:1004E000274D05601FE0254D6D6805F47012234D02
:1004F0006D6805F48034022505EB92421CB9214D4C
:10050000554305600BE01D4D6D6805F400351DB1C8
:100510001C4D5543056002E0194D5543056002E04E
:10052000174D056000BF00BF144D6D6805F0F00168
:100530000909154D6B5C0568DD4045600F4D6D6820
:1005400005F4E061090A104D6B5C4568DD4085608B
:100550000A4D6D6805F46051C90A0B4D6B5C456826
:10056000DD40C560054D6D6805F44041890B074DC0
:100570006B5CC568B5FBF3F5056130BD001002404A
:1005800000127A0000093D0016000020260000201D
:1005900010B500F001F810BD0CB5002001900090DE
:1005A0003348006840F480303149086000BF30486B
:1005B000006800F4003000900198401C0190009801
:1005C00018B90198B0F5A06FF1D12948006800F47E
:1005D000003010B10120009001E000200090009850
:1005E000012843D12348006840F0100021490860E9
:1005F0000846006820F0030008600846006840F0E4
:10060000020008601A484068194948600846406876
:1006100048600846406840F480604860084640688A
:1006200020F47C1048600846406840F4E8104860B8
:100630000846006840F08070086000BF0C48006801
:1006400000F000700028F9D00948406820F003004D
:10065000074948600846406840F00200486000BF13
:100660000348406800F00C000828F9D10CBD0000D8
:100670000010024000200240042808D14FF0E02181
:10068000096941F004014FF0E022116107E04FF0E9
:10069000E021096921F004014FF0E0221161704767
:1006A00010B502F0D3FB012801D002F055F810BDBF
:1006B00010B51348006840F0010011490860084671
:1006C0004068104908400E494860084600680E49D5
:1006D00008400B4908600846006820F48020086044
:1006E0000846406820F4FE0048604FF41F00886010
:1006F000FFF74EFF4FF000600449086010BD000096
:10070000001002400000FFF8FFFFF6FE08ED00E0D9
:1007100010B50121880700F036F9012806D104A0A0
:1007200000F062FB0121880700F01EF910BD0000F7
:1007300054494D32CAE4B3F62E2E2E2E2E2E0D0A1B
:10074000000000007FB505460C4601210846FFF772
:1007500075FEADF80850ADF804400020ADF80A0071
:10076000ADF8060001A94FF0804000F027F9012202
:100770001146900700F018F91C208DF800000520A4
:100780008DF8010000208DF8020001208DF8030093
:100790006846FFF711FE0121880700F0E8F87FBDE9
:1007A00010B50121064800F0EEF8012806D105A099
:1007B00000F01AFB0121024800F0D6F810BD00003D
:1007C0000008004054494D34CAE4B3F62E2E2E2EB4
:1007D0002E2E0D0A000000007FB505460C460121B3
:1007E0000420FFF72BFEADF80850ADF804400020C0
:1007F000ADF80A00ADF8060001A90E4800F0DEF8D9
:10080000012211460B4800F0CFF81E208DF80000A1
:1008100004208DF8010000208DF8020001208DF8E1
:1008200003006846FFF7C8FD0121024800F09FF869
:100830007FBD00000008004010B50121064800F00F
:10084000A2F8012802D105A000F0CEFA0121024849
:1008500000F08AF810BD0000000C004054494D35EE
:10086000CAE4B3F62E2E2E2E2E2E0D0A0000000006
:100870007FB505460C4601210820FFF7DFFDADF8E6
:100880000850ADF804400020ADF80A00ADF80600AD
:1008900001A90E4800F092F8012211460B4800F021
:1008A00083F832208DF8000004208DF8010000202C
:1008B0008DF8020001208DF803006846FFF77CFDEB
:1008C0000121024800F053F87FBD0000000C0040F9
:1008D00010B50121064800F056F8012802D105A004
:1008E00000F082FA0121024800F03EF810BD00003D
:1008F0000010004054494D36CAE4B3F62E2E2E2E79
:100900002E2E0D0A000000007FB505460C46012181
:100910001020FFF793FDADF80850ADF8044000201B
:10092000ADF80A00ADF8060001A90E4800F046F83F
:10093000012211460B4800F037F836208DF80000F0
:1009400004208DF8010000208DF8020001208DF8B0
:1009500003006846FFF730FD0121024800F007F868
:100960007FBD000000100040CA430282704721B1E1
:10097000028842F00102028004E002884FF6FE7312
:100980001A400280704730B5024600200023002440
:10099000158A05EA0103958905EA010413B10CB132
:1009A000012000E0002030BD1AB183890B43838110
:1009B00002E083898B438381704700000022028814
:1009C0001D4B98420ED01D4B98420BD0B0F1804F7A
:1009D00008D01B4B984205D01A4B984202D01A4BB4
:1009E000984204D14FF68F731A404B881A43174B25
:1009F000984207D0164B984204D04FF6FF431A4056
:100A0000CB881A4302808B8883850B8803850A4B29
:100A100098420BD0094B984208D00E4B984205D013
:100A20000D4B984202D00D4B984201D10B7A0386B0
:100A30000123838270470000002C014000340140F4
:100A40000004004000080040000C0040001000407E
:100A500000140040004001400044014000480140B3
:100A600010B540F225511D4800F0F9F810B31B48AD
:100A700000F0B0F9C4B21A48008800F40040C8B9C8
:100A80001748008800F4804060B10A2C03D0002091
:100A90001349088020E01248008840F400401049C3
:100AA000088019E00D2C06D10D48008840F48040E4
:100AB0000B49088010E00A480088C0F30D0009497E
:100AC0000C5407480088401C0549088008460088E7
:100AD000C72801DD0020088010BD0000003801405B
:100AE00014000020B400002010B586B00446012197
:100AF00044F20400FFF7C2FC234800F055F84FF41D
:100B00000070ADF8140003208DF8160018208DF841
:100B1000170005A91D48FFF7BFFB4FF48060ADF833
:100B2000140004208DF8170005A91848FFF7B4FB3E
:100B300001940020ADF80800ADF80A00ADF80C00F3
:100B4000ADF810000C20ADF80E0001A90E4800F021
:100B5000D5F825208DF8000003208DF801008DF8D0
:100B6000020001208DF803006846FFF725FC0122F2
:100B700040F22551044800F09CF80121024800F0A1
:100B800007F806B010BD0000003801400008014021
:100B900021B1828942F40052828104E082894DF6BB
:100BA000FF731A408281704710B504462048844282
:100BB00009D101218803FFF771FC00214FF4804027
:100BC000FFF76CFC32E01B48844209D10121480444
:100BD000FFF744FC00214FF40030FFF73FFC25E015
:100BE0001548844209D101218804FFF737FC002110
:100BF0004FF48020FFF732FC18E01048844209D1FE
:100C00000121C804FFF72AFC00214FF40020FFF760
:100C100025FC0BE00A48844208D101210805FFF7B2
:100C20001DFC00214FF48010FFF718FC10BD0000E0
:100C3000003801400044004000480040004C0040A3
:100C40000050004002460020B1F5007F00D100BFF7
:100C500013880B400BB1012000E00020704770B5F5
:100C60000246002400230025002040F66A16B14207
:100C700000D100BFC1F3421501F01F03012606FA9F
:100C800003F3012D02D19689334006E0022D02D1F3
:100C9000168A334001E0968A33400C12012606FA88
:100CA00004F41688344013B10CB1012000E0002098
:100CB00070BDF0B50346002400260025002040F654
:100CC0006A17B94200D100BF1846C1F3421401F0BF
:100CD0001F06012707FA06F5012C01D10C3004E0AC
:100CE000022C01D1103000E014301AB107682F43F4
:100CF000076002E00768AF430760F0BD2DE9F047E9
:100D000086B005460E460024A24600BFA146002735
:100D1000B08900B100BF2F462C8A4CF6FF7004400A
:100D2000F08804432C82AC894EF6F3100440B0885E
:100D300031890843718908430443AC81AC8A4FF67A
:100D4000FF400440B0890443AC8201A8FFF7B6FB22
:100D50001F48874202D1DDF810A001E0DDF80CA0A9
:100D6000A88900F4004040B10AEBCA0000EB0A1069
:100D700031684900B0FBF1F807E00AEBCA0000EB6C
:100D80000A1031688900B0FBF1F86420B8FBF0F07C
:100D900004012009642101FB1089A88900F40040A6
:100DA00040B1322000EBC900B0FBF1F000F00700C9
:100DB000044308E0322000EB09106421B0FBF1F09D
:100DC00000F00F0004432C8106B0BDE8F08700005E
:100DD0000038014001468888C0F308007047C1F31D
:100DE00008028280704700000FB4054B10B503A9BC
:100DF000044A029800F018F810BC5DF814FB0000DB
:100E0000A51000081000002002E008C8121F08C149
:100E1000002AFAD170477047002001E001C1121F7B
:100E2000002AFBD1704700002DE9FF4F8BB09A4696
:100E30000F460546002606E025280BD052460D99A0
:100E400090476D1C761C28780028F5D10FB03046ED
:100E5000BDE8F08F0024A0460122604900E0044371
:100E600015F8013F203B02FA03F00842F7D1287839
:100E70002E2817D115F8010F44F004042A280ED0AB
:100E80006FF02F022878A0F1300109290AD808EB69
:100E9000880102EB410100EB01086D1CF2E757F8F5
:100EA000048B6D1C287869283ED006DC0028CDD044
:100EB00063280BD0642804D136E0732810D075283D
:100EC0004BD052460D999047761C85E017F8040BDD
:100ED0008DF8000000208DF80100E946012003E0B4
:100EE00057F8049B4FF0FF3061074FF0000401D426
:100EF0000AE0641C44450DDA8442FADB19F8041058
:100F00000029F6D106E0641C8442FCDB19F80410C9
:100F10000029F8D1264404E019F8010B52460D9936
:100F20009047641EF8D257E001CF4FF00A0B00281B
:100F300002DA40422D2102E0210504D52B218DF853
:100F40002410012103E0E10705D02021F7E70DF18E
:100F5000200908910CE00021F9E701CF4FF00A0BBE
:100F6000F9E75946FFF770F901F1300209F8012D50
:100F70000028F6D1ADEB090000F1200B600701D489
:100F80004FF00108D84502DDA8EB0B0000E000207F
:100F90008046002406E009A85246005D0D9990475E
:100FA000641C761C08988442F5DB04E0302052462D
:100FB0000D999047761CB8F10001A8F10108F5DC05
:100FC00005E019F8010B52460D999047761CBBF1CC
:100FD0000001ABF1010BF4DC6D1C34E709280100C2
:100FE00010B50420FFF748FB104800681049B0FB1B
:100FF000F1F0104908700D4800680F49B0FBF1F49A
:101000004FF47A70444301200C4908804FF0E020EF
:10101000006940F002004FF0E02108610846446199
:10102000006940F00100086110BD00002C000020A4
:1010300040420F000C00002000127A000E00002039
:1010400070B5034600224FF0E02675690E4E3678E3
:1010500003FB06F400BF4FF0E026B16910E04FF04B
:10106000E026B06988420BD0884202D20E1A324480
:1010700002E02E1A0E4432440146A24200D300E0A0
:10108000EDE700BF70BD00000C00002030B5044645
:10109000002504E04FF47A70FFF7D2FF6D1CA542E3
:1010A000F8D330BD70B504460D4600BF4021054859
:1010B000FFF7C8FD0028F9D0E1B20248FFF78FFE24
:1010C000204670BD0038014023E012480068401CF3
:1010D0001049086008460068052817D10EA0FFF7E0
:1010E00083FE00BF502080F31188BFF34F8FBFF302
:1010F0006F8F00BF4FF4FA70FFF7C8FF0AA0FFF729
:1011000073FE002080F3118800BF00BF642001F04F
:1011100085F8DAE708000020B9D8B1D5D6D0B6CF27
:101120002E2E2E2E2E0D0A00B4F2BFAAD6D0B6CF88
:101130002E2E2E2E2E0D0A0008B501211020FFF7AD
:101140009DF9FF20ADF8000010208DF8030003206A
:101150008DF8020069460648FFF79EF8FF21044813
:10116000FFF727F902210248FFF721F908BD000027
:10117000001001401CB54FF44070FFF755F94FF4D3
:10118000E130FFF7B1FCFFF72BFFFFF7D5FF41F68A
:101190001F4140F2E730FFF7D5FA41F61F4140F218
:1011A000E730FFF719FB41F61F4140F2E730FFF748
:1011B0005FFB41F61F4140F2E730FFF7A5FB074810
:1011C000012100230A02CDE9001005A1074801F022
:1011D0000DFE01F0BFF900201CBD00000000002042
:1011E00073746172745F7461736B0000691E000830
:1011F0002DE9F04105460E461C4807681C4800686A
:10120000001D00F055FE50B91948006890F82C10E8
:101210000120884017490968814316480160681C0D
:1012200038B936B112480168091D134800F07EFE36
:101230001AE07C190E4800684460BC4207D20C4892
:101240000168091D0D48006800F056FE0CE00848D2
:101250000168091D0A48006800F04EFE0948006850
:10126000844201D207480460BDE8F08154000020A8
:1012700040000020580000208C040020480000207E
:10128000440000207000002010B5044600F05AFE13
:1012900024480068401C234908602348006840B97E
:1012A000214804600846006801280DD100F0EEF9DD
:1012B0000AE01E48006838B91B480068C06AE16A45
:1012C000884201D81848046019480068401C184931
:1012D000086008460068606494F82C10012088407B
:1012E00014490968084313490860E16A01EB810168
:1012F000114A02EB8100211D00F018FE00F064FE8F
:101300000A48006868B108480068C06AE16A884213
:1013100007D24FF0805009490860BFF34F8FBFF3E9
:101320006F8F10BD50000020400000205C000020A6
:101330006C00002058000020BC01002004ED00E0FB
:1013400010B500F0FFFD10480068D0B90F4800F05C
:10135000C3FD0F4800F0C0FD0C480E4908600C4862
:101360000D49086000221021052001F00FFA0649FE
:1013700008600846006820B108A10348006800F032
:1013800011FF00F021FE10BD84000020A004002009
:10139000B40400207C00002080000020546D7251B5
:1013A0000000000070B523E001F02AF9134800683E
:1013B00008B9012000E00020054601F0D3FEBDB9C8
:1013C00000F0C0FD0D48C068C468201D00F070FD2D
:1013D0000B480068401E0A4908600A480068401E21
:1013E0000849086000F0F0FD204600F060F800BFFA
:1013F000044800680028D7D170BD000078040020A0
:10140000500000204C00002070B504460D46206CB2
:1014100070B1216CE0680844E0606168E06888426F
:1014200001D32068E0602846226CE168FEF7E8FE00
:1014300070BD2DE9F04104460F4615464FF00008F7
:10144000A66B206C40B9206860BB606801F0C4FDE9
:1014500080460020606025E07DB93946226CA06896
:10146000FEF7CEFE216CA0680844A060D4E901100C
:10147000884217D32068A06014E03946226CE068E7
:10148000FEF7BEFE216CE068401AE0602168E0686B
:10149000884203D2216C6068401AE060022D01D1BD
:1014A00006B1761E701CA0634046BDE8F08110B501
:1014B0000446206B00F0BEFD204600F0BBFD10BDD1
:1014C0000146084A126812680AB9012200E00022A7
:1014D0000A600A6822B9034A1268D268106800E0FC
:1014E000002070477C00002030B54FF4A04317481F
:1014F00000F007042CB1C01D20F00700134C041BA2
:101500001B1B0246124C22600024114D6C60D01847
:10151000083820F007000F4C206000240D4D2D6886
:101520006C600C4D2D682C601146441A4C60094CBF
:1015300024680C60084D4C682C60084D4C682C6089
:101540004FF00044064D2C6030BD0000C804002060
:101550009000002098000020A00000209C000020A7
:10156000A400002000BFFFF71DFF06480068012807
:10157000F9D94FF0805004490860BFF34F8FBFF393
:101580006F8FF0E7BC01002004ED00E02DE9F04191
:1015900006460D4617469846069C0DB9246000E0A5
:1015A0002760E66325640121204601F00DFA84F8E6
:1015B00050800020A064BDE8F08100002DE9F05FBC
:1015C00082460F4690469B460A9E0C9C4FEA880135
:1015D000A522206BFEF726FEA8F10100216B01EB8E
:1015E000800929F0070909F0070008B9012000E087
:1015F000002028B940F22B321BA120A0FFF7F4FBFA
:10160000002507E0795D04F134004155785D00B9AB
:1016100002E06D1C102DF5D300BF002143200155C1
:10162000202E00D31F26E662E66400202065201DE0
:1016300000F05FFC04F1180000F05BFC2461C6F1CF
:101640002000A06164620020606584F858005A465A
:101650005146484600F0F6FB20600B9808B10B9805
:101660000460BDE8F09F00004672656552544F5318
:101670005C7461736B732E63000000004572726FBF
:10168000723A25732C25640D0A00000010B5002461
:1016900007E004EB84010F4A02EB810000F01CFC20
:1016A000641C202CF5D30C4800F016FC0B4800F00D
:1016B00013FC0B4800F010FC0A4800F00DFC0A482F
:1016C00000F00AFC04480949086004480849086019
:1016D00010BD0000BC0100203C040020500400208C
:1016E00064040020780400208C04002044000020C2
:1016F0004800002010B50146164800E00068036865
:101700008B42FBD30246436813448B4204D14368A7
:101710004C682344436001460A464B6813440468FE
:10172000A34211D10C4C03682468A34208D04B6833
:101730000468646823444B6003681B680B6005E021
:10174000054B1B680B6001E003680B60884200D00A
:10175000016010BD90000020980000202DE9F041AC
:1017600004460D4616461F464FF00008656024618A
:10177000B5420CD8F01BA169884202D34FF0010892
:1017800011E0211D0948006800F0B6FB0BE0BE42E5
:1017900004D2BD4202D34FF0010804E0211D0448E9
:1017A000006800F0A9FB4046BDE8F0818000002001
:1017B0007C00002070B5054600F0C4FBA86B08B99A
:1017C000012400E0002400F0FFFB204670BD70B54E
:1017D000054600F0B7FBA86BE96B884201D10124F4
:1017E00000E0002400F0F0FB204670BD2DE9F3413D
:1017F0000D460098846C00272CB940F6CE121AA131
:101800001EA0FFF7F1FAA06BE16B884201D2012024
:1018100000E0002028B940F6CF1213A117A0FFF76F
:10182000E3FAA06BE16B88421BD294F945602A462B
:1018300069462046FFF7FDFD0746701C60B9606AE7
:1018400008B9012000E0002050B904F1240001F0A3
:101850002FFC28B1012703E0701C40B284F845003A
:1018600000BF3846BDE8FC814672656552544F534F
:101870005C71756575652E63000000004572726FBE
:10188000723A25732C25640D0A000000F8B5054650
:101890000F4613480068C068C468201D00F008FBAC
:1018A000E069012818D1A06941192B463A46204623
:1018B000FFF754FF80B1002003462A4601460090FE
:1018C000204601F017FD06462EB94FF4027205A11D
:1018D00009A0FFF789FA00BF2046616A8847F8BD72
:1018E0007C0000204672656552544F535C74696DEC
:1018F0006572732E630000004572726F723A257331
:101900002C25640D0A000000F0B587B070E0039844
:1019100000280CDA04AE2EB940F2E7223AA13FA02B
:10192000FFF762FAD6E90020B168904700BF03983C
:1019300000285DDB059C606908B9012000E00020FB
:1019400010B9201D00F0B4FA02A800F0C5F8054651
:1019500003980A284AD2DFE800F00905072C2E4533
:1019600006082D2F00BF00BF00BF00BF0498A2696A
:10197000811803462A462046FFF7F0FEC0B12046F4
:10198000616A8847E069012812D10020009004981C
:10199000A169421800231946204601F0ABFC074616
:1019A0002FB940F2213218A11CA0FFF71DFA00BF89
:1019B0001DE000BF1BE000BF0498A061A06908B152
:1019C000012000E0002028B94FF44E720EA113A0B0
:1019D000FFF70AFAA06941192B462A462046FFF76D
:1019E000BDFE04E0204600F025FB00E000BF00BF84
:1019F00000231A4603A90D48006800F001FF0028E3
:101A000085D107B0F0BD00004672656552544F5352
:101A10005C74696D6572732E630000004572726FAD
:101A2000723A25732C25640D0A0000008400002002
:101A3000F8B505460C4600F0E3FD684600F04CF8AA
:101A40000646009820BB44B9B54206D801F08AFB8F
:101A500031462846FFF71AFF1CE03CB10E480068EB
:101A6000006808B9012000E000200446A91B2246B6
:101A70000A48006800F0ACFB01F074FB50B94FF06D
:101A8000805007490860BFF34F8FBFF36F8F01E0AD
:101A900001F068FBF8BD00008000002084000020F9
:101AA00004ED00E00A490968096809B9012100E06C
:101AB000002121B14FF0FF31064A116006E00449D0
:101AC0000968C968C868034A416811607047000026
:101AD000440000207000002070B5044601F0C6F9F3
:101AE000054607480068854204D200F00BF8012043
:101AF000206001E00020206001480560284670BD9C
:101B00008C0000202DE9F8432DE021480068C068D2
:101B100005681F480068C068C468201D00F0C8F947
:101B20002046616A8847E06901281CD1A0694619EE
:101B3000AE4207D966602461211D1548006800F097
:101B4000DBF910E0002003462A46014600902046BB
:101B500001F0D0FB07462FB940F292320DA112A03E
:101B6000FFF742F900BF0A480068006808B9012081
:101B700000E000200028C8D00548D0F800800E48BA
:101B80000068034908600C48C0F80080BDE8F8838D
:101B90007C0000204672656552544F535C74696D39
:101BA0006572732E630000004572726F723A25737E
:101BB0002C25640D0A000000800000200B480068FE
:101BC000401C08B9012000E0002020B9F42208A13F
:101BD00011A0FFF709F900BF502080F31188BFF36F
:101BE0004F8FBFF36F8F00BF00BFFEE7A80000203C
:101BF0004672656552544F535C706F727461626CCB
:101C0000655C525644535C41524D5F434D335C70AA
:101C10006F72742E630000004572726F723A257302
:101C20002C25640D0A00000008B500BF6846FFF7C8
:101C300047FC044620460099FFF7FAFEFFF764FED2
:101C4000F4E770B5044600F07DF994F945501AE0C8
:101C5000A06C38B100212046FFF7C8FD88B100F024
:101C60009DFB0EE0606A08B9012000E0002038B951
:101C700004F1240001F01CFA18B100F08FFB00E021
:101C800003E0681E45B2002DE2DC00BFFF2084F8AF
:101C9000450000F099F900F055F994F9445010E02E
:101CA000206908B9012000E0002048B904F11000C3
:101CB00001F0FEF908B100F071FB681E45B200E0CA
:101CC00001E0002DECDC00BFFF2084F8440000F0B0
:101CD0007BF970BD2DE9F04104464FF0000800F09B
:101CE0008FFC3E48006808B9FFF7FEFB3C480068DF
:101CF000204000285FD1A4B1083404F0070080B16F
:101D000004F00700C0F10800044404F0070008B91B
:101D1000012000E0002020B9BF2232A13AA0FFF745
:101D200063F8002C47D03C480068844243D83B4EBF
:101D30003046056801E02E462D686868A04202D250
:101D400028680028F7D125480068854233D03068DC
:101D500000F10808286830606868001B102813D953
:101D60002F1907F0070008B9012000E0002020B972
:101D7000EC221CA124A0FFF737F86868001B7860EC
:101D80006C603846FFF7B6FC234968680968081A92
:101D9000214908600846006821490968884203D241
:101DA0001D4800681E4908600D49686809680843B5
:101DB00068600020286001F0D5F908F0070008B934
:101DC000012000E0002028B94FF4967205A10EA072
:101DD000FFF70AF84046BDE8F081000098000020B7
:101DE000A40000204672656552544F535C706F72B8
:101DF0007461626C655C4D656D4D616E675C6865B4
:101E000061705F342E6300004572726F723A257301
:101E10002C25640D0A0000009C000020900000208A
:101E2000A00000200648006830B10549096801F1AA
:101E30005000096D491C01600148006870470000AE
:101E400040000020001F4FF080730360001F21F04E
:101E500001030360001F034B036014380260203845
:101E600070470000BD1B00081CB5044600F06AF86E
:101E7000084802210023CA01CDE9001006A10A4842
:101E800000F0B4FF0948006800F002FA00F09CF886
:101E90001CBD000004000020696E746572727570CC
:101EA000745F7461736B0000C910000800000020AB
:101EB00001460A69D1E901309860D1E9010358600F
:101EC0005068884201D1886850600020086110681D
:101ED000401E10601068704700F1080141604FF02B
:101EE000FF31816000F10801C160016100210160E2
:101EF000704700210161704710B502460B685C1CF9
:101F00000CB9106907E002F1080000E0406844687D
:101F100024689C42FAD944684C604C68A16088608F
:101F200041600A611468641C146010BD42684A6014
:101F300093688B60936859609160086103685B1CCB
:101F40000360704710B500BF502080F31188BFF3C5
:101F50004F8FBFF36F8F00BF0B480068401C0A49CA
:101F600008600846006801280DD108480068C0B222
:101F700008B9012000E0002028B94FF4BD7204A187
:101F80000DA0FEF731FF10BDA800002004ED00E019
:101F90004672656552544F535C706F727461626C27
:101FA000655C525644535C41524D5F434D335C7007
:101FB0006F72742E630000004572726F723A25735F
:101FC0002C25640D0A00000010B50B48006828B9E4
:101FD00040F2811209A113A0FEF706FF064800682F
:101FE000401E054908600846006820B9002080F3BB
:101FF000118800BF00BF10BDA800002046726565B3
:1020000052544F535C706F727461626C655C5256CF
:1020100044535C41524D5F434D335C706F72742E7C
:10202000630000004572726F723A25732C25640DAF
:102030000A00000070B506463546002E35D0083D32
:102040002C461A4960680968084008B1012000E080
:10205000002028B94FF4A07215A11EA0FEF7C4FEFF
:10206000206808B9012000E0002028B940F24112A0
:102070000FA118A0FEF7B8FE0C4960680968084077
:1020800098B1206888B90949606809688843606028
:1020900000F0B6FA134960680968084411490860FD
:1020A0002046FFF727FB01F05DF870BDA40000207B
:1020B0004672656552544F535C706F727461626C06
:1020C000655C4D656D4D616E675C686561705F3420
:1020D0002E6300004572726F723A25732C25640DD1
:1020E0000A0000009C000020064800684FF47A7146
:1020F000B0FBF1F0401E4FF0E0214861072008617D
:10210000704700002C00002070B5FEF763F805460C
:10211000102D11D305F1E02090F8F043104800781D
:10212000844201DB012000E0002028B94FF42A722C
:102130000CA116A0FEF758FE1848006800F4E060F5
:1021400017490968884201D8012000E0002028B919
:102150004FF42E7203A10DA0FEF746FE70BD0000E5
:10216000AC0000204672656552544F535C706F722C
:102170007461626C655C525644535C41524D5F43DE
:102180004D335C706F72742E630000004572726F85
:10219000723A25732C25640D0A0000000CED00E056
:1021A000B0000020024600200BE0084B53F830300E
:1021B00033B9064B43F8301003EBC0035A6002E01A
:1021C000401C0828F1D300BF704700007C010020AC
:1021D0002DE9F04105460E4617462C46FFF7B2FEA4
:1021E00094F94400401C10B9002084F8440094F98C
:1021F0004500401C10B9002084F84500FFF7E4FEBC
:10220000A06B28B93A46314604F1240000F0F6F8F4
:102210002046FFF716FDBDE8F081000070B50446CA
:102220000025ACB10F48006808B9012000E000208B
:1022300028B940F2CF420CA110A0FEF7D5FD00F066
:10224000DFF900212046FEF7D3FF00F08BFF0546A3
:102250003DB94FF080500D490860BFF34F8FBFF379
:102260006F8F70BD780000204672656552544F53E1
:102270005C7461736B732E63000000004572726FB3
:10228000723A25732C25640D0A00000004ED00E06D
:1022900070B50546FFF756FE15B92D48006800E0F9
:1022A00028460446201DFFF703FE78B9E06A00EBDC
:1022B0008000284951F8200040B994F82C100120E2
:1022C000884025490968814323480160A06A18B104
:1022D00004F11800FFF7ECFD20480068401C1F497E
:1022E00008601B480068844209D1211D1C48FFF783
:1022F0001DFE1C480068401C1A49086009E01A4885
:102300000068401E184908602046FFF7D0F8FFF724
:10231000C9FBFFF759FE15480068C0B10C480068BA
:10232000844214D11248006808B9012000E000205E
:1023300028B940F265420FA113A0FEF755FD4FF0FA
:10234000805015490860BFF34F8FBFF36F8F70BD8A
:1023500040000020BC010020580000206C0000203C
:10236000780400204C000020500000205C00002079
:10237000780000204672656552544F535C74617357
:102380006B732E63000000004572726F723A257302
:102390002C25640D0A00000004ED00E00120014935
:1023A000086070476400002070B504460D462CB9E3
:1023B00040F6063207A10CA0FEF716FD0E48016894
:1023C00018312046FFF798FD01212846FEF710FF3F
:1023D00070BD00004672656552544F535C74617362
:1023E0006B732E63000000004572726F723A2573A2
:1023F0002C25640D0A0000004000002070B5054641
:102400000E4614462DB940F6313209A10DA0FEF753
:10241000EBFC1048016818312846FFF787FD0CB126
:102420004FF0FF3621463046FEF7E2FE70BD000059
:102430004672656552544F535C7461736B732E63BF
:10244000000000004572726F723A25732C25640DEE
:102450000A0000004000002070B505462C46002D03
:102460004BD02649E06A0968C96A884245D2A0690A
:1024700000F0004028B921480068C06AC0F120007F
:10248000A061E16A01EB81011D4A02EB81016069F3
:10249000884201D1012000E0002050B3201DFFF749
:1024A00007FD78B9E06A00EB8000154951F820007B
:1024B00040B994F82C1001208840124909688143E2
:1024C000104801600D480068C06AE06294F82C1062
:1024D000012088400B49096808430A490860E16AFD
:1024E00001EB8101064A02EB8100211DFFF71EFD71
:1024F00003E002480068C06AE06270BD400000204E
:10250000BC0100205800002010B504462CB940F64C
:10251000C13205A109A0FEF767FC0C4800682060E5
:102520000B480068606010BD4672656552544F5399
:102530005C7461736B732E63000000004572726FF0
:10254000723A25732C25640D0A00000068000020F3
:10255000540000201CB51A4800210B468222CDE908
:10256000001018A1194800F041FC0446012C02D1CA
:1025700000F088FE0446012C15D100BF502080F3E6
:102580001188BFF34F8FBFF36F8F00BF4FF0FF3045
:102590000F49086001200F49086000200E490860BB
:1025A00000F08AF80BE0601C08B1012000E0002078
:1025B00028B940F2847209A10DA0FEF715FC1CBDDC
:1025C0007400002049444C450000000065150008D7
:1025D000700000205C0000205400002046726565F9
:1025E00052544F535C7461736B732E630000000090
:1025F0004572726F723A25732C25640D0A00000033
:1026000002480068401C01490860704778000020BB
:1026100010B51B48006818B101201A4908602DE068
:1026200000201849086018480068B0FA80F0C0F12E
:102630001F0404EB8400154951F8200008B1012063
:1026400000E0002028B940F6F62211A115A0FEF7FF
:10265000CBFB04EB84010D4A02EB81004168496821
:10266000416000F1080142688A4202D1416849682C
:1026700041604168C9680F4A116000BF10BD000089
:10268000780000206400002058000020BC010020D9
:102690004672656552544F535C7461736B732E635D
:1026A000000000004572726F723A25732C25640D8C
:1026B0000A000000400000201CB5224801460978AD
:1026C0000191FF21024611700146097800919DF8A1
:1026D000001001F050011C4A117007211B4A1160C3
:1026E00009E01A490968491E184A11609DF800104E
:1026F0004906090E00919DF8001001F08001802923
:10270000EFD0124909680902104A11601146098880
:1027100001F4E06111600B4A019911700C480068E6
:1027200040F470000A4908600846006840F07040B4
:102730000860FFF7D9FC002006490860FDF714FD8A
:1027400000201CBD00E400E0AC000020B000002030
:1027500020ED00E0A800002010B500BF502080F35D
:102760001188BFF34F8FBFF36F8F00BF00F084FB62
:1027700018B14FF080500449086000BF002080F37A
:10278000118800BF10BD000004ED00E02DE9F84302
:1027900005460E4690460DB1012000E0002028B904
:1027A0004FF4C4720DA112A0FEF71EFB0EB9002754
:1027B00001E005FB06F707F15400FFF78BFA04462A
:1027C00044B104F1540943464A4631462846009430
:1027D000FEF7DCFE2046BDE8F88300004672656522
:1027E00052544F535C71756575652E63000000008F
:1027F0004572726F723A25732C25640D0A00000031
:102800002DE9FF4782B005460E461F464FF0000AED
:102810002C462CB940F2DC4261A166A0FEF7E4FA36
:102820000EB9206C08B9012000E0002028B940F260
:10283000DD425BA15FA0FEF7D7FA00F007FB08B905
:10284000049808B9012000E0002028B94FF49C62E8
:1028500053A158A0FEF7C8FA00BFFFF773FBD4F8E6
:102860003890B9F1000F3DD0D4F80C8031462046A5
:10287000FEF7CAFDDFB9A9F10100A063206810B915
:10288000FFF7D0FA6060206908B9012000E000205D
:1028900010BB04F1100000F00BFCE8B14FF08050C9
:1028A00048490860BFF34F8FBFF36F8F14E0C4F83F
:1028B0000C80606A08B9012000E0002060B904F1D2
:1028C000240000F0F5FB38B14FF080503D4908601E
:1028D000BFF34F8FBFF36F8FFFF776FB012006B07A
:1028E000BDE8F087049818B9FFF76EFB0020F6E703
:1028F000BAF1000F04D16846FFF706FE4FF0010A57
:10290000FFF762FBFFF77CFEFFF71CFB94F9440026
:10291000401C10B9002084F8440094F94500401C84
:1029200010B9002084F84500FFF74EFB04A9684663
:1029300000F00CFA40BB2046FEF73CFFF0B12068E7
:1029400030B9FFF7FFFA6068FFF786FDFFF73CFB41
:1029500004F124000499FFF727FD2046FFF771F9E1
:1029600000F000FC00287FF478AF4FF0805015494C
:102970000860BFF34F8FBFF36F8F6EE72046FFF7FE
:1029800060F900F0EFFB68E72046FFF75AF900F026
:10299000E9FB2046FEF70EFF0028EED000209EE760
:1029A0004672656552544F535C71756575652E634B
:1029B000000000004572726F723A25732C25640D79
:1029C0000A00000004ED00E070B505460E462C46F6
:1029D0002CB940F21B121EA122A0FEF705FAFFF748
:1029E000B1FAD4E90F12206801FB020060600020F8
:1029F000A0632068A060E06B401E226C216800FB91
:102A00000210E060FF2084F8440084F845009EB97D
:102A1000206908B9012000E00020A8B904F11000E5
:102A200000F046FB80B14FF0805012490860BFF3C0
:102A30004F8FBFF36F8F07E004F11000FFF74CFAE0
:102A400004F12400FFF748FAFFF7BEFA012070BD39
:102A50004672656552544F535C71756575652E639A
:102A6000000000004572726F723A25732C25640DC8
:102A70000A00000004ED00E02DE9FF4383B00646A4
:102A800088461D464FF0000934462CB940F2D92241
:102A900060A165A0FEF7A8F9B8F1000F01D1206C84
:102AA00008B9012000E0002028B940F2DA2259A13B
:102AB0005DA0FEF799F9022D02D1E06B012801D14A
:102AC000012000E0002028B940F2DB2251A156A0ED
:102AD000FEF78AF900F0BAF908B9059808B901209B
:102AE00000E0002028B940F2DE224AA14EA0FEF705
:102AF0007BF900BFFFF726FAA06BE16B884201D398
:102B0000022D38D12A4641462046FEF792FC074660
:102B1000A06C68B129462046FEF768FE28B34FF046
:102B2000805045490860BFF34F8FBFF36F8F1CE0A3
:102B3000606A08B9012000E0002068B904F12400AF
:102B400000F0B6FA88B14FF080503B490860BFF3FF
:102B50004F8FBFF36F8F08E03FB14FF08050364981
:102B60000860BFF34F8FBFF36F8FFFF72DFA01207F
:102B700007B0BDE8F083059818B9FFF725FA0020E3
:102B8000F6E7B9F1000F04D101A8FFF7BDFC4FF043
:102B90000109FFF719FAFFF733FDFFF7D3F994F9AD
:102BA0004400401C10B9002084F8440094F945000A
:102BB000401C10B9002084F84500FFF705FA05A96C
:102BC00001A800F0C3F8F0B92046FEF700FEA0B15E
:102BD00004F110000599FFF7E7FB2046FFF731F8F5
:102BE00000F0C0FA002885D14FF0805012490860EB
:102BF000BFF34F8FBFF36F8F7CE72046FFF721F8BD
:102C000000F0B0FA76E72046FFF71BF800F0AAFACA
:102C10000020ADE74672656552544F535C7175658F
:102C200075652E63000000004572726F723A25735D
:102C30002C25640D0A00000004ED00E02DE9F05F92
:102C400080468A4615461E4644462CB940F29F32BD
:102C500035A13AA0FEF7C8F8BAF1000F01D1206CF7
:102C600008B9012000E0002028B94FF468722EA1B5
:102C700032A0FEF7B9F8022E02D1E06B012801D193
:102C8000012000E0002028B940F2A13226A12BA0AB
:102C9000FEF7AAF8FFF738FA00BF5021EFF31180D2
:102CA00081F31188BFF34F8FBFF36F8F00BF0746CB
:102CB000A06BE16B884201D3022E2BD194F945B071
:102CC000324651462046FEF7B4FB0BF10100C8B96D
:102CD000A06C40B131462046FEF788FDB8B1B5B1D1
:102CE0000120286013E0606A08B9012000E000209C
:102CF00068B904F1240000F0DBF940B13DB10120D6
:102D0000286004E00BF1010040B284F845004FF068
:102D1000010901E04FF0000900BF87F3118800BFEF
:102D20004846BDE8F09F00004672656552544F5317
:102D30005C71756575652E63000000004572726FE9
:102D4000723A25732C25640D0A0000002DE9F0412C
:102D500004460D462CB940F6CB3219A11DA0FEF752
:102D600043F82DB940F6CC3215A11AA0FEF73CF875
:102D7000FFF7E8F81B4807682868401C08B90026D8
:102D800019E0194920680968884204D06068B8428F
:102D900001D801260FE06068381A2968884209D2F4
:102DA00028686168791A401A28602046FFF7ACFB52
:102DB000002600E00126FFF707F93046BDE8F08164
:102DC0004672656552544F535C7461736B732E6326
:102DD000000000004572726F723A25732C25640D55
:102DE0000A00000054000020680000202DE9FF4F79
:102DF00085B0804689461746DDE912ABB800FEF77C
:102E000069FF064656B15C20FEF764FF04460CB12C
:102E1000266304E03046FFF70DF900E000247CB1A2
:102E20000020CDE900ABCDE902403A464946404694
:102E3000089BFEF7C3FB2046FEF726FA012501E0BA
:102E40004FF0FF35284609B0BDE8F08F0549096805
:102E500009B9012005E00449096809B9022000E028
:102E6000002070475C0000207800002001490868BD
:102E700070470000540000202DE9F0414FF0000899
:102E800041480068002872D140480068451C3F480E
:102E90000560EDB93E480068006808B9012000E00F
:102EA000002028B940F6D9123AA13FA0FDF79CFFB7
:102EB0003748076840480068354908603E48076061
:102EC0003E480068401C3D490860FEF7EBFD00BF2E
:102ED0003B48006885423CD300BF2D48006800682D
:102EE00008B9012000E0002020B14FF0FF30344944
:102EF00008602DE026480068C068C4686668B5426E
:102F000002D22F48066023E0201DFEF7D1FFA06A01
:102F100018B104F11800FEF7CBFF94F82C10012033
:102F2000884028490968084326490860E16A01EB9E
:102F30008101254A02EB8100211DFEF7F7FF23499D
:102F4000E06A0968C96A8842C7D34FF00108C4E73C
:102F500000BF1E480068C06A00EB80001A4951F8A3
:102F60002000012801D94FF0010805E0FFE71848CB
:102F70000068401C164908601648006808B14FF008
:102F800001084046BDE8F081780000205400002090
:102F9000440000204672656552544F535C7461735F
:102FA0006B732E63000000004572726F723A2573D6
:102FB0002C25640D0A000000480000206800002055
:102FC0007000002058000020BC01002040000020BC
:102FD000600000206400002070B505462C460026E5
:102FE000002D4BD026480068844201D1012000E02A
:102FF000002028B940F6C76222A127A0FDF7F4FE01
:10300000206D28B940F6C9621EA123A0FDF7ECFE91
:10301000206D401E2065E16CE06A88422ED0206D54
:1030200060BB201DFEF744FF78B9E06A00EB80002A
:103030001D4951F8200040B994F82C100120884017
:103040001A490968814319480160E06CE062E06A4E
:10305000C0F12000A06194F82C1001208840134991
:103060000968084311490860E16A01EB81010E4AD1
:1030700002EB8100211DFEF759FF0126304670BD8D
:10308000400000204672656552544F535C74617372
:103090006B732E63000000004572726F723A2573E5
:1030A0002C25640D0A000000BC01002058000020FF
:1030B00070B50646F068C4682CB940F661321AA1B2
:1030C0001EA0FDF791FE04F11800FEF7F1FE1F4867
:1030D0000068A8B9201DFEF7EBFE94F82C10012023
:1030E00088401B490968084319490860E16A01EBF7
:1030F0008101184A02EB8100211DFEF717FF04E051
:1031000004F118011448FEF711FF1449E06A096838
:10311000C96A884204D9012501201149086000E0EC
:103120000025284670BD00004672656552544F5315
:103130005C7461736B732E63000000004572726FE4
:10314000723A25732C25640D0A00000078000020D7
:1031500058000020BC010020640400204000002032
:103160006400002070B5002400263448006828B9A7
:103170004FF4FD6232A137A0FDF736FEFEF7E2FE06
:103180002E480068401E2D49086008460068002847
:103190004FD13448006800284BD024E03248C06842
:1031A000C46804F11800FEF783FE201DFEF780FEC0
:1031B00094F82C10012088402C49096808432B49B9
:1031C0000860E16A01EB8101294A02EB8100211DBF
:1031D000FEF7ACFE2749E06A0968C96A884202D353
:1031E0000120254908602048006808B9012000E056
:1031F00000200028D2D00CB1FEF754FC1F4805680F
:1032000065B100BFFFF738FE10B101201A49086010
:103210006D1E002DF6D10020184908601648006880
:1032200038B10126300716490860BFF34F8FBFF34E
:103230006F8FFEF7C9FE304670BD00007800002099
:103240004672656552544F535C7461736B732E63A1
:10325000000000004572726F723A25732C25640DD0
:103260000A000000500000206404002058000020E4
:10327000BC0100204000002064000020600000200D
:1032800004ED00E01CB50024FEF75AF80B48006876
:1032900058B10B481F2100234FF48272CDE9001072
:1032A00008A10A48FFF7A2FD04462CB940F23312E8
:1032B00007A10CA0FDF798FD20461CBD840000204E
:1032C00088000020546D722053766300291C00088A
:1032D0004672656552544F535C74696D6572732E06
:1032E000630000004572726F723A25732C25640DDD
:1032F0000A0000002DE9FF4704460D4616461F460A
:10330000DDF830804FF000092CB94FF4D37217A1CB
:103310001BA0FDF769FD1E48006810B300950196DB
:103320000294062D15DAFFF791FD022808D100233B
:103330004246694616480068FFF79EFB814610E04A
:1033400000231A46694612480068FFF795FB81463C
:1033500007E000233A4669460D480068FFF76EFC17
:103360008146484604B0BDE8F087000046726565B6
:1033700052544F535C74696D6572732E6300000084
:103380004572726F723A25732C25640D0A00000095
:1033900084000020B433000800000020B4000000C6
:1033A000080E000868340008B4000020145800001B
:1033B000180E0008000000000000000000000000DF
:1033C00000000000000000000000000000000102FA
:1033D00003040102030406070809020406080000AA
:1033E00000A24A04000000000000000001020304E3
:1033F00006070809000000000000000000000000AF
:1034000000000000000000000000000000000000BC
:1034100000000000000000000000000000000000AC
:10342000000000000000000000000000000000009C
:10343000000000000000000000000000000000008C
:10344000000000000000000000000000000000007C
:10345000000000000000000000000000AAAAAAAAC4
:08346000000000000000000064
:0400000508000131BD
:00000001FF
